:020000040800F2
:1000000058A70020F1010008E15F00084F570008E1
:10001000DD5F0008650E00086B720008000000003C
:1000200000000000000000000000000085620008E1
:100030001715000800000000E55F0008876200084F
:100040000B0200080B0200080B0200080B0200085C
:100050000B0200080B0200080B0200080B0200084C
:100060000B0200080B0200080B0200080B0200083C
:100070000B0200080B0200080B0200080B0200082C
:100080000B0200080B0200080B0200080B0200081C
:100090000B0200080B0200080B0200080B0200080C
:1000A0000B0200080B0200080B0200080B020008FC
:1000B0000B020008156300080B0200080B02000881
:1000C0000B0200080B0200080B0200080B020008DC
:1000D0000B0200080B0200080B0200080B020008CC
:1000E0000B0200080B0200080B0200080B020008BC
:1000F0000B0200080B0200080B0200080B020008AC
:100100000B0200080B0200080B0200080B0200089B
:100110000B0200080B0200080B0200080B0200088B
:100120000B0200080B0200080B0200080B0200087B
:100130000B0200080B0200080B0200080B0200086B
:100140000B0200080B0200080B0200080B0200085B
:100150000B0200080B0200080B0200080B0200084B
:100160000B0200080B0200080B0200080B0200083B
:100170000B0200080B0200080B0200080B0200082B
:100180000B0200080B0200080B0200080B0200081B
:100190000B020008000000000B0200080B02000820
:1001A0000B0200080B0200080B0200084D58000863
:1001B0000B0200080B0200080B0200080B020008EB
:1001C0000B0200080B0200080B0200080B020008DB
:1001D0000B0200080B020008DFF810D000F0CCFB87
:1001E00000480047C9040308AFF3008058A7002067
:1001F0000648804706480047FEE7FEE7FEE7FEE7C1
:10020000FEE7FEE7FEE7FEE7FEE7FEE70163000824
:10021000D90100082DE9F05F0546002092469B4673
:1002200088460646814640241BE02846414647460C
:10023000224600F0D2FA53465A46C01A914110D3D2
:1002400011461846224600F0B9FA2D1A67EB01084C
:100250004F4622460120002100F0B0FA17EB0009BA
:100260004E41201EA4F10104DFDC484631462A46F7
:100270004346BDE8F09F10B5431A934209D2831854
:10028000881803E010F8011D03F8011D521EF9D271
:1002900010BD40EA01039B0703D009E008C9121F03
:1002A00008C0042AFAD203E011F8013B00F8013B30
:1002B000521EF9D210BDD2B201E000F8012B491E46
:1002C000FBD270470022F6E710B513460A460446F3
:1002D0001946FFF7F0FF204610BD421C10F8011B25
:1002E0000029FBD1801A704710B5002200E0521C93
:1002F000835C8C5CA34201D1002BF8D1D8B2E1B26F
:10030000401A10BD034611F8012B00F8012B002AFA
:10031000F9D1184670472DE9FE4F804681EA030067
:10032000C00F0C46009021F0004123F00045B8EBCF
:100330000200A94105D24046214690461C460B4684
:10034000024623F00040104347D0270DC7F30A00B0
:10035000C3F30A510290401A019040286BDAC3F3AC
:10036000130040F4801B0098924620B10023D2EB8A
:10037000030A63EB0B0B01985946C0F1400250464B
:1003800000F01CFA06460D4650465946019A00F008
:1003900034FA10EB08006141002487EA115284EA24
:1003A000E7731A4340D0009A62B3019A012A4FEAD8
:1003B000075215DC001B61EB02014FF0004202EA1C
:1003C0000752CDE90042001C41F5801132462B4610
:1003D00000F06BFA03B0BDE8F08F40462146F9E724
:1003E000001B61EB0201001C41F5801300185B410A
:1003F0002018A2F5001747EB030140EAD570B619A3
:100400006D4111E06D084FEA360645EAC0754FEAC6
:100410000752001B61EB0201001C41F580114908E5
:100420004FEA30000019514132462B4603B0BDE877
:10043000F04F00F02BBA0098012240000023D0EBCF
:10044000020263EBE073009821464FEAE074B8EBD8
:10045000000061EB0401E9E783F000435BE781F012
:10046000004158E72DE9FE4F81EA030404F00044FF
:1004700021F0004100944FF0000B23F0004350EABC
:1004800001045ED052EA03045BD0C3F30A54C1F303
:100490000A552C44A4F2F3340194A0FB0254C1F396
:1004A000130141F48011C3F3130343F4801301FBE0
:1004B000024400FB034E840A970A44EA815447EA47
:1004C0008357A4FB076802958D0A05FB07854FEA51
:1004D000932C04FB0C542705029D4FEA065847EA6B
:1004E0001637B5EB08056EEB070C870E920E47EA40
:1004F000811742EA8312A7FB0201B6EB0B0164EB02
:1005000000042B0D43EA0C335E1844EB1C50DA4612
:100510005146E7FB0201C5F313044FEA0B3343EAEC
:1005200014534FEA0432019C43EA0603A4F10C047D
:100530000294009CCDE900B400F0B7F903B0BDE827
:10054000F08F00200146F9E72DE9F04D81EA030420
:1005500004F0004B21F0004514464FF0000A23F050
:10056000004150EA050220D054EA01021DD0C5F333
:100570000A570246C5F31303C1F31300C1F30A5629
:1005800040F4801543F48013A7EB0608101BD646F1
:1005900008F2FD3873EB050002D308F1010801E011
:1005A00092185B41B8F1000F03DA00200146BDE864
:1005B000F08D00204FF48011064684460EE0171B94
:1005C00073EB050705D3121B63EB050306434CEAE7
:1005D000010C49084FEA300092185B4150EA0107CC
:1005E000EDD152EA030012D082EA040083EA050149
:1005F000084305D0101BAB4106D20122002306E0C0
:1006000000224FF0004302E06FF0010253101AEB9A
:1006100006004CEB085110EB0A0041EB0B01BDE862
:10062000F04D00F033B90EB5C10F80EAE070084418
:10063000CA07002140F233438DE80E000A460B46FC
:1006400000F033F903B000BD0EB540F23341029122
:100650000021CDE900110A460B4600F026F903B04F
:1006600000BD70B5C1F30A5201F000450024C1F38A
:10067000130140F2FF3341F480119A4201DA002065
:1006800070BD40F233439A42A2F2334203DC52423D
:1006900000F0A3F800E090402C43F1D0404270BD40
:1006A000C1F30A5210B5C1F3130140F2FF3341F414
:1006B00080119A4201DA002010BD40F233439A4281
:1006C000A2F2334203DC524200F087F810BD9040A2
:1006D00010BD00F0004230F000400AD0C10D01F51D
:1006E0006071C0F3160042EA0151C208400711438D
:1006F000704700200146704730B5041E71F10004B8
:1007000004DB4FF00044404264EB0101141E73F11E
:10071000000405DB1C464FF00043524263EB040328
:100720008B4208BF824230BD30B5041E71F1000417
:1007300004DB4FF00044404264EB0101141E73F1EE
:10074000000405DB1C464FF00043524263EB0403F8
:10075000994208BF904230BD01F0004330B421F00F
:10076000004150EA010206D00A0DA2F56072C1F301
:100770001301002A02DC30BC00207047440F44EA19
:10078000C104C100E01830BC00EBC25000F047B813
:1007900030B50B46014600202022012409E021FA51
:1007A00002F59D4205D303FA02F5491B04FA02F54E
:1007B0002844151EA2F10102F1DC30BD202A04DB21
:1007C000203A00FA02F1002070479140C2F1200364
:1007D00020FA03F3194390407047202A04DB203AA3
:1007E00021FA02F00021704721FA02F3D040C2F151
:1007F00020029140084319467047202A06DBCB1798
:10080000203A41FA02F043EAE07306E041FA02F3CB
:10081000D040C2F120029140084319467047002998
:10082000A8BF7047401C490008BF20F00100704776
:1008300010B4B0FA80FC00FA0CF050EA010404BFD6
:1008400010BC704749B1CCF1200421FA04F411FA2C
:100850000CF118BF012121430843A3EB0C01CB1D70
:100860004FEA00614FEA102042BF002010BC7047E1
:1008700000EBC35010440029A4BF10BC7047401CBB
:10088000490008BF20F0010010BC704710B5141ECD
:1008900073F1000408DA401C41F1000192185B4139
:1008A0001A4301D120F0010010BD2DE9F04D924610
:1008B0009B4611B1B1FA81F202E0B0FA80F2203227
:1008C0009046FFF77BFF04460F4640EA0A0041EAE4
:1008D0000B0153465A46084313D0114653EA010010
:1008E00019D0C8F140025046FFF777FF05460E4683
:1008F000504659464246FFF761FF084305D00120A4
:1009000004E020463946BDE8F08D0020054346EA64
:10091000E0762C4337430A986305E40AA0EB08000D
:100920000022FD0A44EA47540A3002D5002001465D
:10093000E9E7010510196941DDE908450019694138
:10094000BDE8F04DA2E7C1F30A52C1F3130140F232
:10095000FF3341F480119A4202DA002001467047C9
:1009600040F233439A42A2F2334202DC5242FFF792
:1009700034BFFFF723BF0000064C074D06E0E068D8
:1009800040F0010394E8070098471034AC42F6D3D6
:10099000FFF726FCA4D70308C4D7030870B58C184A
:1009A00010F8015B15F0070301D110F8013B2A1183
:1009B00006D110F8012B03E010F8016B01F8016B70
:1009C0005B1EF9D12B0705D40023521E0DD401F86C
:1009D000013BFAE710F8013BCB1A921C03E013F835
:1009E000015B01F8015B521EF9D5A142D8D300206A
:1009F00070BD000070B50446206804F0CBFE0646CA
:100A0000206804F0CCFE98B396BB2068806800F0A4
:100A10000D0001280AD1206881681A4A1140891CFA
:100A2000816000BF03202168086009E0E06D40F0AC
:100A30001000E065206E40F001002066012070BDCE
:100A400001F07EFF054614E001F07AFF401B02280A
:100A50000FD92068806800F0010050B1E06D40F0CF
:100A60001000E065206E40F0010020660120E6E7FE
:100A700005E02068806800F001000028E4D1002033
:100A8000DDE70000C0FFFF7F70B50446206804F07A
:100A900086FE002836D1206880681B49084048B18E
:100AA000E06D40F01000E065206E40F0010020662F
:100AB000012070BD206804F04DFE01F041FF0546A5
:100AC0001AE0206804F06BFE10B9206804F042FEC2
:100AD00001F036FF401B02280ED92068006800F0A4
:100AE000010048B9E06D40F01000E065206E40F074
:100AF000010020660120DCE72068006800F00100AA
:100B00000028DED00020D4E73F00008010B52DED96
:100B1000028B00BF1EF054F804461EF0B5F89D4944
:100B200008600846006823F0F5FE9B490860B4227F
:100B30003221994800682BF043FA1E223221964850
:100B400000682BF0E7F995480068FFF7C2FD41EC1B
:100B5000180B53EC182B92A18F48006824F003FF68
:100B60008C48006823F0D6FE914908607822322133
:100B70008F4800682BF024FA1E2296218C480068CA
:100B80002BF0C8F985480068FFF7A3FD41EC180B6E
:100B900053EC182B87A18648006824F0E4FE7D48BA
:100BA000006823F0B7FE8749086078223221854823
:100BB00000682BF005FA4B223221824800682BF0A6
:100BC000A9F976480068FFF784FD41EC180B53EC57
:100BD000182B7DA17B48006824F0C5FE6D48006895
:100BE00023F098FE7C490860782232217A48006818
:100BF0002BF0E6F94B229621774800682BF08AF912
:100C000066480068FFF765FD41EC180B53EC182BA4
:100C100072A17148006824F0A6FE5E48006823F0C7
:100C200079FE7249086078223221704800682BF002
:100C3000C7F9782232216D4800682BF06BF95748CC
:100C40000068FFF746FD41EC180B53EC182B68A128
:100C50006648006824F087FE4E48006823F05AFE7C
:100C60006749086078223221654800682BF0A8F9AE
:100C700078229621624800682BF04CF947480068BA
:100C8000FFF727FD41EC180B53EC182B5DA15C48D6
:100C9000006824F068FE3F48006823F03BFE5D4991
:100CA0000860782232215B4800682BF089F9A52280
:100CB0003221584800682BF02DF938480068FFF7BA
:100CC00008FD41EC180B53EC182B53A15148006858
:100CD00024F049FE2F48006823F01CFE52490860AA
:100CE00078223221504800682BF06AF9A52296211B
:100CF0004D4800682BF00EF928480068FFF7E9FC22
:100D000041EC180B53EC182B48A14748006824F01D
:100D10002AFE2048006823F0FDFD4849086078223B
:100D20003221464800682BF04BF9D2223221434849
:100D300000682BF0EFF819480068FFF7CAFC41EC97
:100D4000180B53EC182B3EA13C48006824F00BFE16
:100D50001048006823F0DEFD3D490860782232210A
:100D60003B4800682BF02CF9D222962138480068C5
:100D70002BF0D0F809480068FFF7ABFC41EC180BEA
:100D800053EC182B33A13248006824F0ECFDBDEC85
:100D9000028B10BDC402002084020020D400002079
:100DA000416C6C5F566F6C5F494E3A252E3266007F
:100DB00088020020416C6C5F4375725F494E3A2592
:100DC0002E3266008C02002050315F566F6C5F49F6
:100DD0004E3A252E326600009402002050315F43C7
:100DE00075725F494E3A252E32660000900200204F
:100DF00050315F566F6C5F4F55543A252E32660066
:100E00009802002050315F4375725F4F55543A2568
:100E10002E3266009C02002050325F566F6C5F4994
:100E20004E3A252E32660000A402002050325F4365
:100E300075725F494E3A252E32660000A0020020EE
:100E400050325F566F6C5F4F55543A252E32660014
:100E5000A802002050325F4375725F4F55543A2507
:100E60002E32660000BFFEE7F8B507460C46154671
:100E70001E462A2000F0E0F838128DF80000F8B283
:100E80008DF8010028128DF80200E8B28DF80300F9
:100E90000421684600F0ECF82B2000F0CDF8201279
:100EA0008DF80000E0B28DF8010030128DF80200DC
:100EB000F0B28DF803000421684600F0D9F82C2028
:100EC00000F0BAF8F8BD2DE9F84F06460F46144673
:100ED0001D46DDF82880681E83B2601E82B2394646
:100EE0003046FFF7C1FFB94617E0B2460FE04FEAC0
:100EF00028208DF8000008F0FF008DF80100022185
:100F0000684600F0B5F80AF101001FFA80FAA24520
:100F1000EDDB09F101001FFA80F9A945E5DBBDE829
:100F2000F88F00002DE9F04106460C4615460022D8
:100F30002021224801F0FEFCB4F806C01FFA8CF311
:100F4000B4F804C01FFA8CF2B4F802C01FFA8CF196
:100F5000B4F800C01FFA8CF0FFF786FFB4F9040064
:100F6000B4F90010401A401CB4F90610B4F902207C
:100F7000891A491C48434700012280210F4801F08B
:100F8000D9FC00BF002220210C4801F0D3FCBAB2EA
:100F90004FF0FF3329460A4803F068F90122202167
:100FA000064801F0C7FC00BF01222021034801F0E0
:100FB000C1FC30461DF000FEBDE8F0810004004891
:100FC000F008002010B500F071F810BD10B5012236
:100FD00020210A4801F0AEFC00224021074801F020
:100FE000A9FC0A2001F0A2FB01224021034801F0E4
:100FF000A1FC0A2001F09AFB10BD0000000400488B
:1010000001B5002220210A4801F094FC0122802130
:10101000074801F08FFC4FF0FF3301226946054875
:1010200003F024F901222021014801F083FC08BDCE
:1010300000040048F008002001B5002220210A48E1
:1010400001F078FC00228021074801F073FC4FF08A
:10105000FF3301226946054803F008F901222021E7
:10106000014801F067FC08BD00040048F0080020BA
:1010700070B504460D46002220210A4801F05AFCB2
:1010800001228021074801F055FCAAB24FF0FF333E
:101090002146054803F0EAF801222021014801F029
:1010A00049FC70BD00040048F008002008B5FFF7B7
:1010B0008DFFEF20FFF7C0FFEB20FFF7BDFF1420EF
:1010C000FFF79EFFFE20FFF7B7FFEF20FFF7B4FF0B
:1010D000EB20FFF7B1FF1420FFF792FF8420FFF70A
:1010E000ABFF4020FFF78CFF8520FFF7A5FFFF2017
:1010F000FFF786FF8620FFF79FFFFF20FFF780FFA7
:101100008720FFF799FFFF20FFF77AFF8820FFF77E
:1011100093FF0A20FFF774FF8920FFF78DFF21203E
:10112000FFF76EFF8A20FFF787FF0020FFF768FFB9
:101130008B20FFF781FF8020FFF762FF8C20FFF7F5
:101140007BFF0120FFF75CFF8D20FFF775FF01207B
:10115000FFF756FF8E20FFF76FFFFF20FFF750FFCE
:101160008F20FFF769FFFF20FFF74AFFB620FFF748
:1011700063FF0020FFF744FF2020FFF741FF3620E8
:10118000FFF75AFF0820FFF73BFF3A20FFF754FF15
:101190000520FFF735FF9020FFF74EFF0820FFF7EF
:1011A0002FFF0820FFF72CFF0820FFF729FF08205A
:1011B000FFF726FFBD20FFF73FFF0620FFF720FFC8
:1011C000BC20FFF739FF0020FFF71AFFFF20FFF7D1
:1011D00033FF6020FFF714FF0120FFF711FF042009
:1011E000FFF70EFFC320FFF727FF1320FFF708FFCD
:1011F000C420FFF721FF1320FFF702FFC920FFF7EC
:101200001BFF2220FFF7FCFEBE20FFF715FF112079
:10121000FFF7F6FEE120FFF70FFF1020FFF7F0FECB
:101220000E20FFF7EDFEDF20FFF706FF2120FFF77E
:10123000E7FE0C20FFF7E4FE0220FFF7E1FEF020BE
:10124000FFF7FAFE4520FFF7DBFE0920FFF7D8FE87
:101250000820FFF7D5FE0820FFF7D2FE2620FFF773
:10126000CFFE2A20FFF7CCFEF120FFF7E5FE43205A
:10127000FFF7C6FE7020FFF7C3FE7220FFF7C0FE27
:101280003620FFF7BDFE3720FFF7BAFE6F20FFF7CD
:10129000B7FEF220FFF7D0FE4520FFF7B1FE092090
:1012A000FFF7AEFE0820FFF7ABFE0820FFF7A8FE11
:1012B0002620FFF7A5FE2A20FFF7A2FEF320FFF766
:1012C000BBFE4320FFF79CFE7020FFF799FE7220C3
:1012D000FFF796FE3620FFF793FE3720FFF790FECC
:1012E0006F20FFF78DFEED20FFF7A6FE1B20FFF716
:1012F00087FE0B20FFF784FEAE20FFF79DFE7720D0
:10130000FFF77EFECD20FFF797FE6320FFF778FE04
:101310007020FFF791FE0720FFF772FE0720FFF70E
:101320006FFE0420FFF76CFE0E20FFF769FE0F2012
:10133000FFF766FE0920FFF763FE0720FFF760FE58
:101340000820FFF75DFE0320FFF75AFEE820FFF7B5
:1013500073FE3420FFF754FE6220FFF76DFE182065
:10136000FFF74EFE0D20FFF74BFE7120FFF748FE02
:10137000ED20FFF745FE7020FFF742FE7020FFF7DB
:101380003FFE1820FFF73CFE0F20FFF739FE7120CB
:10139000FFF736FEEF20FFF733FE7020FFF730FE39
:1013A0007020FFF72DFE6320FFF746FE1820FFF7A1
:1013B00027FE1120FFF724FE7120FFF721FEF12008
:1013C000FFF71EFE7020FFF71BFE7020FFF718FED0
:1013D0001820FFF715FE1320FFF712FE7120FFF70C
:1013E0000FFEF320FFF70CFE7020FFF709FE7020C0
:1013F000FFF706FE6420FFF71FFE2820FFF700FE20
:101400002920FFF7FDFDF120FFF7FAFD0120FFF78E
:10141000F7FDF120FFF7F4FD0020FFF7F1FD0720B5
:10142000FFF7EEFD6620FFF707FE3C20FFF7E8FD23
:101430000020FFF7E5FDCD20FFF7E2FD6720FFF775
:10144000DFFD4520FFF7DCFD4520FFF7D9FD10202B
:10145000FFF7D6FD0020FFF7D3FD0020FFF7D0FDFA
:101460000020FFF7CDFD6720FFF7E6FD0020FFF726
:10147000C7FD3C20FFF7C4FD0020FFF7C1FD0020A1
:10148000FFF7BEFD0020FFF7BBFD0120FFF7B8FD11
:101490005420FFF7B5FD1020FFF7B2FD3220FFF713
:1014A000AFFD9820FFF7ACFD7420FFF7C5FD1020BD
:1014B000FFF7A6FD8520FFF7A3FD8020FFF7A0FD25
:1014C0000020FFF79DFD0020FFF79AFD4E20FFF75B
:1014D00097FD0020FFF794FD9820FFF7ADFD3E201B
:1014E000FFF78EFD0720FFF78BFD3520FFF7A4FDEA
:1014F0002120FFF7A1FD1120FFF79EFD2920FFF716
:101500009BFD4FF6FF70F0231A460021009008461D
:10151000FFF7D9FC08BD704772B600BFFEE730B5D3
:1015200089B005460C46202101A8FEF7CBFE0194A8
:1015300006200290072003907F200490042005904D
:101540000020069001A9284600F0E0F908B1FFF755
:10155000E3FF7F21284600F0A5F8284600F0AEFF03
:101560000A21284600F0E8FE284600F08DFC09B06C
:1015700030BD00002DE9F0472DED068B074688466B
:1015800014460025002609E041463846FFF7C7FF0C
:101590000544012001F0CAF8701CC6B2A642F3DB74
:1015A000B5FBF4F94846FFF74FF841EC1A0B9FEDF5
:1015B0000C0B53EC102BFEF755FF41EC190B9FED74
:1015C0000A0B53EC102BFEF74DFF41EC180BFFF705
:1015D000C3F800EE100ABDEC068BBDE8F0870000F2
:1015E000B4D934E70C684A3F0000000000002440F2
:1015F000F0B52DED028B95B005460E46142750210F
:1016000001A8FEF75FFE00240BE0012231462846C8
:10161000FFF7B0FF01A800EB840080ED000A601C1A
:10162000C4B2142CF1DB9FED1E8A00212FE00020B4
:1016300027E001AA02EB800292ED000A01AB421CF6
:1016400003EB8202D2ED000AB4EEE00AF1EE10FAEA
:1016500015DD01AA02EB800292ED000AB0EE408A8D
:10166000421C03EB820292ED000A01AA02EB800207
:1016700082ED000A421C03EB820282ED008A421CCA
:10168000D0B2C1F113028242D3DC481CC1B213298B
:10169000CDDB9DED070A15B0BDEC028BF0BD00005F
:1016A00000000000F8B504460D460020009000BF81
:1016B00094F85800012801D10220F8BD012084F8D7
:1016C000580000BF2046FFF795F906468EBBE06D37
:1016D00020F4885040F00200E065206881681B4AD1
:1016E000114005F0804242F000421143816000BF8A
:1016F00013E00098401C00901549009888420CD3D4
:10170000E06D20F0020040F01000E06500BF002016
:1017100084F8580000BF0120CFE720688168C90F16
:101720000029E6D1E06D20F0020040F00100E06504
:1017300004E0FFE7E06D40F01000E06500BF00202E
:1017400084F8580000BF3046B7E70000C0FFFF3FF5
:1017500002DE04002DE9F0439BB004460E464FF034
:101760000008306800B100BF00BF94F8580001289D
:1017700003D102201BB0BDE8F083012084F858009B
:1017800000BF0020179018902068B0F1A04F02D140
:101790005848009008E058492068884202D15748CC
:1017A000009001E000200090009850B9E06D40F0FA
:1017B0002000E06500BF002084F8580000BF012031
:1017C000D8E7009803F0FFFF0746206803F0FBFF0F
:1017D00000287DD1002F7FD12068B0F1A04F03D029
:1017E00044492068884201D1454800E04548054603
:1017F0003068D8B394F83800716841EA4030A9687D
:1018000021F460410843A8602068B0F1A04F03D0E4
:1018100038492068884201D1394800E039483849C0
:1018200088420AD14FF0A04003F0BEFF8146314804
:1018300003F0BAFF49EA00000DE02F4803F0B4FFBF
:1018400081462E4803F0B0FF49EA00092E4803F014
:10185000ABFF49EA0000E0BBB16830680843A96803
:1018600040F61F7291430843A8603BE0FFE7A86879
:1018700020F46040A8602068B0F1A04F03D01D495B
:101880002068884201D11E4800E01E481C49884259
:101890000AD14FF0A04003F087FF8146154803F0BE
:1018A00083FF49EA00000DE0134803F07DFF814605
:1018B000124803F079FF49EA0009134803F074FF66
:1018C00049EA000028B9A86840F61F71884301E082
:1018D00002E007E0A86005E0E06D40F02000E06570
:1018E0004FF0010800BF002084F8580000BF4046B8
:1018F00040E70000000100500004005000050050C7
:101900000003005000070050000600502DE9F84F7A
:1019100005460C464FF0000A00200090F749E068A9
:10192000884200D000E000BF00BF95F858000128B1
:1019300002D10220BDE8F88F012085F8580000BFD1
:10194000286803F03BFF00287DD12968D4E90020F6
:1019500001F1300CC0F3012B0CEB8B03D3F800C06A
:1019600000F01F0E4FF01F0B0BFA0EFB2CEA0B0CB6
:1019700000F01F0BC2F3846E0EFA0BFE4CEA0E0C45
:10198000C3F800C000BF286803F018FF814628682C
:1019900003F0FBFE8046B9F1000F64D1B8F1000FEF
:1019A000FBD1A068B0F1004F0AD12168002228685D
:1019B00003F020FF4FF00041286803F040FF08E0EB
:1019C000A2682168286803F015FF0021286803F049
:1019D00036FF60692968C968C1F3C101490000FA8E
:1019E00001F7206904283FD028682268216900F1A6
:1019F000600C0CEB8103D3F800C0DFF804B30CEAF1
:101A00000B0C02F0F84B4BF0004B4BEA070B4CEA87
:101A10000B0CC3F800C000BF2868A269216900F15F
:101A2000600C0CEB8103D3F800C02CF0807C4CEAF6
:101A3000020CC3F800C000BF2868227F2169012A78
:101A400002D1520601E0F9E10022134600F1600CD8
:101A50000CEB8102D2F800C02CF0007C4CEA030CA5
:101A6000C2F800C000BFA7E00021286803F084FE90
:101A7000C0F3120030B90021286803F07DFEC0F3E6
:101A8000846007E00021286803F076FE90FAA0F059
:101A9000B0FA80F02168C1F3120119B92168C1F3CD
:101AA000846104E0216891FAA1F1B1FA81F18842E0
:101AB00004D100221146286803F0B6FE01212868EF
:101AC00003F05AFEC0F3120030B90121286803F078
:101AD00053FEC0F3846007E00121286803F04CFE48
:101AE00090FAA0F0B0FA80F02168C1F3120119B9A0
:101AF0002168C1F3846104E0216891FAA1F1B1FA8F
:101B000081F1884204D100220121286803F08CFE73
:101B10000221286803F030FEC0F3120030B9022120
:101B2000286803F029FEC0F3846007E002212868DA
:101B300003F022FE90FAA0F0B0FA80F02168C1F321
:101B4000120119B92168C1F3846104E0216891FA96
:101B5000A1F1B1FA81F1884204D100220221286862
:101B600003F062FE0321286803F006FEC0F31200B2
:101B700030B90321286803F0FFFDC0F3846007E05B
:101B80000321286803F0F8FD90FAA0F0B0FA80F085
:101B90002168C1F3120119B92168C1F3846104E01D
:101BA000216891FAA1F1B1FA81F1884204D10022B1
:101BB0000321286803F038FE286803F0F0FD0028B0
:101BC00074D12868E26821684C4B9A4208D1D0F859
:101BD000B030C1F3120C43EA0C03C0F8B03007E098
:101BE000D0F8B030C1F3120C23EA0C03C0F8B030C7
:101BF00000BF4249E068884258D12368C3F312030A
:101C00001BB92368C3F3846304E0236893FAA3F346
:101C1000B3FA83F35B1C03F01F03092B3ED8236840
:101C2000C3F312031BB92368C3F3846304E023687E
:101C300093FAA3F3B3FA83F35B1C03F01F034FF093
:101C4000010C0CFA03FC2368C3F312031BB92368CD
:101C5000C3F3846304E0236893FAA3F3B3FA83F332
:101C60005B1C03F01F034CEA836C2368C3F312036D
:101C70001BB92368C3F3846304E0236893FAA3F3D6
:101C8000B3FA83F35B1C03F01F0303EB43034FF032
:101C9000000B4BEA03534CEA030344E02368C3F30D
:101CA000120323B92368C3F3846305E040E023688B
:101CB00093FAA3F3B3FA83F35B1C03F01F034FF013
:101CC000010C0CFA03FC2368C3F312031BB923684D
:101CD000C3F3846304E0236893FAA3F3B3FA83F3B2
:101CE0005B1C03F01F034CEA836C2368C3F31203ED
:101CF00043B92368C3F3846309E0000000007F4018
:101D000000F0FF03236893FAA3F3B3FA83F35B1C99
:101D100003F01F030A3B03EB43034FF0007B4BEA46
:101D200003534CEA03031946A268286803F062FDD6
:101D3000494920680840002843D02968B1F1A04FE4
:101D400003D0464A2968914201D1454900E04549FE
:101D50000846816801F0E07600BF43492068884268
:101D600003D04249206888422CD106F4000048BBC9
:101D70002868B0F1A04F03D03D492868884263D15C
:101D80002A68B2F1A04F03D0344B2A689A4201D19D
:101D9000334A00E0334A104646F4000103F03EFDAA
:101DA000344800683449B0FBF1F0401C00EB4000BF
:101DB0008000009002E00098401E009000980028EB
:101DC000F9D141E02D49206888421BD106F080708E
:101DD000C0B922492868884203D129492868884225
:101DE00032D02A68B2F1A04F03D01C4B2A689A4225
:101DF00001D11B4A00E01B4A104646F0807103F0F7
:101E00000DFD21E01F49206888421DD106F48000A5
:101E1000D0B912492868884216D02A68B2F1A04F7A
:101E200003D00B462A689A4201D10D4A00E00D4AC0
:101E3000104646F4800103F0F1FC05E0E86D40F047
:101E40002000E8654FF0010A00BF002085F8580027
:101E500000BF50466EE50000000008800001005001
:101E60000003005000070050000021C31000C09084
:101E70000006005060010020400D0300000052C722
:101E800000050050000084CB01460868006C7047D4
:101E90002DE9F84F04464FF000090020009014B9D6
:101EA0000120BDE8F88F606920B194F82400012872
:101EB00000D100BFE06D30B9204600F04BF90020A2
:101EC000206684F8580020688168C1F3407131B100
:101ED00020688168944A1140816000BF00BF20687B
:101EE00003F067FCB0B920688168904A114041F066
:101EF0008051816000BF8E4800688E49B0FBF1F0D0
:101F0000401C4000009002E00098401E00900098A5
:101F10000028F9D1206803F04CFC48B9E06D40F08E
:101F20001000E065206E40F0010020664FF00109CE
:101F3000206803F043FC0646E06D00F01000002826
:101F40007ED1002EFCD1E06D20F4807040F00200C4
:101F5000E065206803F023FC88BB2068B0F1A04F47
:101F600003D075492068884201D1744800E0744864
:101F7000724988420AD14FF0A04003F010FC82461B
:101F80006D4803F00CFC4AEA00000DE06D4803F0D8
:101F900006FC82466C4803F002FC4AEA000A6B48E1
:101FA00003F0FDFB4AEA000048B92268B2F1A04FF5
:101FB00003D0614B22689A4202D1604A01E009E0F5
:101FC0005F4A10466168826822F47C120A4382608C
:101FD00000BF00BF607FE16B41EA4030E168084329
:101FE000A168084394F8241040EA014594F82400BD
:101FF000012803D1208D401E45EA4045E06A28B102
:10200000A08D00F47870216B084305432068C068F8
:102010004F49084028432168C8602068006920F0C3
:102020004060616B084321680861206803F0C6FBCB
:102030008046206803F0A9FB0746B8F1000F00E0D6
:102040006AE04FD1F7BB207F002141EA803194F84C
:10205000380041EA40052068C06844F20201884324
:1020600028432168C860206980B12068006940F475
:102070008030216808612068D0F8C0006FF30D003F
:10208000216908432168C1F8C0000DE0206800699B
:1020900020F48030216808612068D0F8C0006FF318
:1020A0000D002168C1F8C00094F84000012813D148
:1020B000606C40F00101A06C0843E16C0843216DA5
:1020C000084300E00EE02168096940F2FC72914388
:1020D00008432168086105E02068006920F00100DC
:1020E000216808616069012809D12068006B20F02F
:1020F0000F00216A491E08432168086305E0206833
:10210000006B20F00F0021680863E06D20F00200F2
:1021100040F00100E06505E0E06D40F01000E06592
:102120004FF001094846BCE6C0FFFF5FC0FFFF7FDC
:1021300060010020400D030000010050000300502A
:102140000007005000040050000500500006005039
:102150000740F0FF10B59CB00446142117A8FEF705
:10216000B1F8542102A8FEF7ADF82068B0F1A04FF5
:1021700069D14FF4004002908003139002A801F04F
:1021800071F908B1FFF7C8F966480068401C654955
:1021900008600846006801280DD100BF6248C06C85
:1021A00040F400506049C8640846C06C00F4005018
:1021B000019000BF00BF00BF5B48C06C40F004004E
:1021C0005949C8640846C06C00F00400019000BF83
:1021D00000BF00BF0846C06C40F00100C86408465C
:1021E000C06C00F00100019000BF00BF00BF0846B6
:1021F000C06C40F00200C8640846C06C00F00200E9
:10220000019000BF00BF0F201790032018900020FE
:10221000199017A9454800F09DFA032017901890CF
:102220000020199017A94FF0904000F093FA40F663
:1022300002001790032018900020199017A93C481D
:1022400000F088FA6BE03B492068884267D1C00102
:1022500002908003139002A801F004F908B1FFF77F
:102260005BF930480068401C2E4908600846006849
:1022700001280DD100BF2C48C06C40F400502A4901
:10228000C8640846C06C00F40050019000BF00BF55
:1022900000BF2548C06C40F001002349C8640846CF
:1022A000C06C00F00100019000BF00BF00BF0846F5
:1022B000C06C40F00400C8640846C06C00F0040024
:1022C000019000BF00BF00BF0846C06C40F0020094
:1022D000C8640846C06C00F00200019000BF00BF57
:1022E000D0201790032018900020199017A94FF0C4
:1022F000904000F02FFA3020179003201890002013
:10230000199017A9094800F025FA04201790032016
:1023100018900020199017A9054800F01BFA1CB06E
:1023200010BD0000DC000020001002400008004842
:1023300000040048000100502DE9F04704460F4614
:102340002168B1F1A04F03D0574A2168914201D1D1
:10235000564900E05649084603F009FA0546A069C7
:10236000082801D1082628E01DB1052D01D0092D2E
:102370000DD12068C06800F0010030B1E06D40F080
:102380002000E0650120BDE8F087042615E0216803
:10239000B1F1A04F03D0444A2168914201D1434991
:1023A00000E04349084603F0DDF928B1E06D40F054
:1023B0002000E0650120E6E7042600F0C1FA80462F
:1023C00017E0781CA8B100F0BBFAA0EB0800B842F7
:1023D00000D877B920680068304050B9E06D40F00F
:1023E0000400E06500BF002084F8580000BF03200F
:1023F000C9E72068006830400028E2D0E06D40F472
:102400000070E065206803F0E3F998B1607F88B957
:102410002068006800F0080008280BD1E06D20F467
:102420008070E065E06D00F4805018B9E06D40F018
:102430000100E0651C492068884202D14FF0A040AD
:1024400006E01C492068884201D11B4800E0206852
:102450002168884204D01DB1052D01D0092D03D17A
:102460002068D0F80C9010E00F492068884202D113
:102470004FF0A04006E00F492068884201D10E4885
:1024800000E020688246DAF80C90082E03D108207C
:102490002168086005E009F4804010B90C2021682B
:1024A000086000206FE700000001005000030050AA
:1024B0000007005000050050000400502DE9F041D5
:1024C00004462168B1F1A04F03D0504A21689142DF
:1024D00001D14F4900E04F49084603F048F905464D
:1024E000206803F06BF9002873D100BF94F85800FE
:1024F000012802D10220BDE8F081012084F85800B3
:1025000000BF2046FEF7C0FA0646002E76D1E06DE9
:1025100040F60161884340F48070E0653B492068E3
:10252000884202D14FF0A04006E03B492068884233
:1025300001D13A4800E020682168884200D01DB9E6
:10254000E06D20F48010E065E06D00F48050B0F59F
:10255000805F04D1206E20F00600206601E000209C
:1025600020661C202168086000BF002084F8580005
:1025700000BF26492068884202D14FF0A04006E003
:1025800025492068884201D1244800E0206821685C
:10259000884204D01DB1052D01D0092D0ED120682F
:1025A000C06800F0007028B1E06D20F4005040F4E5
:1025B0008050E065206803F015F925E0E06D40F4F7
:1025C0008010E06511492068884203D14FF0A04097
:1025D00007E018E010492068884201D10F4800E068
:1025E00020680746F86800F0007068B1E06D20F4DC
:1025F000005040F48050E06506E0FFE700BF002097
:1026000084F8580000E00226304674E700010050CC
:102610000003005000070050000500500004005067
:102620000146002091F82520022A03D00422CA6323
:10263000012027E00A68126822F00E020B681A6077
:102640008A6C126822F480728B6C1A600A681268B5
:1026500022F001020B681A6091F8442002F01F0377
:1026600001229A400B6C5A60D1E913325A604A6DCC
:1026700042B14A6D126822F480724B6D1A60D1E942
:1026800016325A60012281F8252000BF002281F80D
:10269000242000BF704770B50446002594F825003B
:1026A00002280BD00420E063012084F8250000BF3D
:1026B000002084F8240000BF012534E02068006871
:1026C00020F00E00216808602068006820F00100FA
:1026D00021680860A06C006820F48070A16C08601C
:1026E00094F8440000F01F0101208840216C4860EC
:1026F000D4E913104860606D40B1606D006820F44B
:102700008070616D0860D4E916104860012084F87B
:10271000250000BF002084F8240000BFA06B10B18A
:102720002046A16B8847284670BD000070B504465E
:1027300000F006F906462546681C10B104480068FA
:10274000054400BF00F0FCF8801BA842FAD370BD1E
:102750005C01002078B502460B460021CAE0012644
:102760008E401D6805EA0604002C73D01D7905F023
:102770000305012D04D01D7905F00305022D13D1A9
:1027800090684E000325B540A8434E00DD68B54073
:1027900028439060506801258D40A8431D79C5F3FA
:1027A00000158D40284350601D7905F00305032D69
:1027B00009D0D0684E000325B540A8434E009D685F
:1027C000B5402843D0601D7905F00305022D13D1D3
:1027D000CE0802F1200555F826004D07EE0E0F2514
:1027E000B540A8434E07F60E1D69B5402843CE08F4
:1027F00002F1200545F8260010684E000325B5407B
:10280000A8431D7905F003054E00B540284310602C
:102810005D6805F44035002D6BD000BF384D2D6E3E
:1028200045F00105364E356635462D6E05F001053D
:10283000009500BF00BF4FEAB6358E0855F8260058
:102840008D072E0F0F25B540A843B2F1904F02D14E
:1028500000251AE04DE02B4DAA4201D1012514E0DC
:10286000294DAA4201D102250FE0284DAA4201D1EB
:1028700003250AE0264DAA4201D1042505E0254D95
:10288000AA4201D1052500E006258E07360FB54086
:102890002843214D8E0845F82600204D2868A04386
:1028A0005D6805F4801505B120431C4D28602D1D81
:1028B0002868A0435D6805F4001505B12043174D55
:1028C0002D1D2860154D2D1F2868A0435D6805F457
:1028D000003505B12043114D2D1F28602D1F28689C
:1028E000A0435D6805F4803505B120430B4D083DDC
:1028F0002860491C1D68CD40002D7FF430AF78BDA5
:10290000001002400004004800080048000C004885
:10291000001000480014004808000140080401406D
:1029200010B5426921EA020302EA010443EA0443C2
:10293000836110BD0AB1816100E0816270470000CF
:10294000014800687047000054010020024600BFA3
:1029500092F8DC00012801D102207047012082F8A2
:10296000DC0000BF022082F8DD00481C80B910683E
:10297000D0F8CC0320F002031068C0F8CC33106804
:10298000D0F8CC0340F001031068C0F8CC3318E055
:102990001068D0F8CC0340F002031068C0F8CC33C4
:1029A0001068D0F8CC0320F00C0008431368C3F87B
:1029B000CC031068D0F8CC0340F001031068C0F8D5
:1029C000CC33012082F8DD000020C6E730B5034695
:1029D0000C4693F8DD00022800D130BD00BF93F80B
:1029E000DC00012801D10220F7E7012083F8DC0098
:1029F00000BF022083F8DD00108800F4E0519088C9
:102A0000C0F308000143108900F400700143108AEC
:102A100000F480400143908900F400400143908A13
:102A2000134D05EA00400143906900F00070014336
:102A3000106A00F080400143D06900F0004001437B
:102A40001868803000EBC410806B0A4D28400843A2
:102A50001D68803505EBC415A863012083F8DD00EF
:102A600000BF002083F8DC0000BF00BFB5E7000016
:102A70000000FF010020003CF8B504460CB901201D
:102A8000F8BD0220E03404F8030C002020606060F0
:102A9000A060E06020616061A061E03C207A00F00D
:102AA000010008B33549206888420DD100BF344881
:102AB000006E40F08060324908660846006E00F003
:102AC0008060009000BF00BF2068066826F4404682
:102AD000208A00F44040064326F44056A08A00F4C1
:102AE0004050064320680660204600F04BF8207AEC
:102AF00000F0020048B12068066826F44076A089FC
:102B000000F44070064320680660012084F8DD0070
:102B100000BF002084F8DC0000BF002529E0002170
:102B2000C5EBC50204F1180040F82210C5EBC50240
:102B300000EB82004160C5EBC50204F1180000EB18
:102B400082008160C5EBC50204F1180000EB820031
:102B5000C160C5EBC50204F1180000EB8200016101
:102B6000C5EBC50204F1180000EB82008161681C0E
:102B7000C5B2062DD3D9002082E7000000680140CD
:102B80000010024008B5094A016891420DD100BF0A
:102B90000749096E41F08061054A11661146096EC8
:102BA00001F08061009100BF00BF08BD00680140D6
:102BB0000010024010B586B00446142101A8FDF7AC
:102BC00081FB34492068884262D100BF3248C06C22
:102BD00040F002003049C8640846C06C00F00200B2
:102BE000009000BF00BF00BF0846C06C40F004006A
:102BF000C8640846C06C00F00400009000BF00BF2D
:102C000000BF0846C06C40F00100C8640846C06CB4
:102C100000F00100009000BF00BF4FF47040019031
:102C20000220029000200390032004900D200590C4
:102C300001A91A48FFF78EFDC020019002200290E2
:102C400000200390032004900D20059001A9144852
:102C5000FFF780FD4FF440700190022002900020A9
:102C6000039003200490059001A90D48FFF772FD21
:102C70004FF4706001900220029000200390032026
:102C800004900D20059001A94FF09040FFF762FDE0
:102C900006B010BD0068014000100240000400486A
:102CA0000008004870B504460D46FFF749FE064689
:102CB0000CE0681C50B1FFF743FE801BA84200D80F
:102CC00025B9072084F8DD00032070BD2068D0F806
:102CD0008803C0F300400028EBD0012084F8DD0019
:102CE00000BF002084F8DC0000BF00BFEDE770B536
:102CF00004460D46164694F8DD00022800D170BD4A
:102D0000022084F8DD00062D04D13146204602F071
:102D1000C5FA04E032462946204602F0A5FB012010
:102D200084F8DD000020EAE730B5044694F8DD00C1
:102D3000022800D130BD00BF94F8DC00012801D189
:102D40000220F7E7012084F8DC0000BF022084F8AD
:102D5000DD00062928D1012A06D0022A08D0042A3B
:102D60000AD0082A10D10BE018682568E86114E041
:102D700018682568686210E018682568A8620CE089
:102D800018682568E86208E0072084F8DD0000BFC5
:102D9000002084F8DC0000BF00BF00BF94F8DD0015
:102DA00007287DD10120C5E7012A06D0022A0BD0D1
:102DB000042A4CD0082A74D150E01D682068803065
:102DC00000EBC110C5619AE01D682068803000EBFF
:102DD000C1104562586868B32068803000EBC110AC
:102DE000006820F440552068803000EBC110056079
:102DF0002068803000EBC11000685D6828432568BA
:102E0000803505EBC11528605868B0F5005F06D124
:102E10009D682068803000EBC110C56116E05868DD
:102E2000B0F5405F12D19D682068803000EBC11082
:102E300085620BE02068803000EBC110006820F450
:102E400040502568803505EBC115286057E01D68A6
:102E50002068803000EBC110856250E01D6820685A
:102E6000803000EBC110C562586888B3206880309C
:102E700000EBC110006820F440452068803000EB72
:102E8000C11005602068803000EBC11000685D68EB
:102E900040EA85052068803000EBC110056001E044
:102EA00034E023E05868B0F5005F06D19D682068E3
:102EB000803000EBC110C56117E05868B0F5405F85
:102EC00013D19D682068803000EBC11085620CE052
:102ED000FFE72068803000EBC110006820F440401C
:102EE0002568803505EBC115286008E0072084F8C7
:102EF000DD0000BF002084F8DC0000BF00BF00BF81
:102F000094F8DD00072801D1012013E7012084F89F
:102F1000DD0000BF002084F8DC0000BF00BF09E72F
:102F2000024600BF92F8DC00012801D10220704760
:102F3000012082F8DC0000BF022082F8DD0010686A
:102F40000068084313681860012082F8DD0000BFA4
:102F5000002082F8DC0000BF00BFE8E7024600BFA7
:102F600092F8DC00012801D102207047012082F88C
:102F7000DC0000BF022082F8DD0010680068884392
:102F800013681860012082F8DD0000BF002082F87D
:102F9000DC0000BF00BFE8E72DE9F04104460D4624
:102FA00016461F4694F8DD00022801D1BDE8F081E5
:102FB00000BF94F8DC00012801D10220F6E70120CF
:102FC00084F8DC0000BF022084F8DD003B46324676
:102FD0002946204602F0C5F9012084F8DD0000BF33
:102FE000002084F8DC0000BF00BFDFE7024600BF1E
:102FF00092F8DC00012801D102207047012082F8FC
:10300000DC0000BF022082F8DD001068D0F89403D5
:1030100008431368C3F89403012082F8DD0000BF61
:10302000002082F8DC0000BF00BFE6E7024600BFD8
:1030300092F8DC00012801D102207047012082F8BB
:10304000DC0000BF022082F8DD001068D0F8980391
:1030500008431368C3F89803012082F8DD0000BF1D
:10306000002082F8DC0000BF00BFE6E770B5044630
:103070000D46164694F8DD00022800D170BD00BF51
:1030800094F8DC00012801D10220F7E7012084F840
:10309000DC0000BF022084F8DD00062D04D131469B
:1030A000204602F00FF904E032462946204602F09D
:1030B000FBF9C5EBC50204F1180000EB8200316892
:1030C0008160C5EBC50204F1180000EB8200716855
:1030D000C160C5EBC50204F1180000EB8200B168C5
:1030E0000161C5EBC50204F1180000EB8200F16834
:1030F0004161C5EBC50204F1180000EB82003169A3
:1031000081612946204602F07FF8062D10D0F06A32
:1031100070B92068803000EBC510006820F40070A2
:10312000F16D40EA41212068803000EBC51001605C
:10313000012084F8DD0000BF002084F8DC0000BF1F
:1031400000BF9BE770B504460D46164694F8DD00B7
:10315000022800D170BD00BF94F8DC00012801D125
:103160000220F7E7012084F8DC0000BF022084F889
:10317000DD0032462946204602F0BCFA29462046A8
:1031800002F042F8012084F8DD0000BF002084F83E
:10319000DC0000BF00BFDDE70348006803490968A1
:1031A0000844014908607047540100205C01002078
:1031B00010B50024032000F0ABF8002000F008F860
:1031C00008B1012401E000F02FF8204610BD0000F6
:1031D00070B50446002511480068D8B10F48006852
:1031E0004FF47A71B1FBF0F00D490968B1FBF0F6CC
:1031F000304601F030F958B9102C07D20022214690
:10320000501E00F047F80748046004E0012502E082
:10321000012500E00125284670BD00005C0100206A
:10322000600100205801002008B500BF0E48006E64
:1032300040F001000C4908660846006E00F00100ED
:10324000009000BF00BF00BF0846806D40F0805076
:1032500088650846806D00F08050009000BF00BF78
:1032600000F0F6F808BD00000010024001460846D4
:1032700000280DDB00BF00BF00F01F0301229A40B1
:1032800043099B0003F1E023C3F8002100BF00BF06
:1032900000BF70472DE9F05F80460D46164603F0EB
:1032A000F7FF074639462A46334601F00700C0F1CA
:1032B000070ABAF1040F02D94FF0040A01E0C0F185
:1032C000070AD14600F1040ABAF1070F02D24FF003
:1032D000000A01E0A0F1030AD4464FF0010A0AFAFD
:1032E00009FAAAF1010A0AEA020A0AFA0CFA4FF0EC
:1032F000010B0BFA0CFBABF1010B0BEA030B4AEAD7
:103300000B042146404603F0CBFFBDE8F09F0000D0
:1033100000BF00F00702064B19684FF6FF03194083
:10332000044B0B4343EA0221014B196000BF704775
:103330000CED00E00000FA0502468ABB4148006837
:1033400000F4C060B0F5806F2BD13E48803000683B
:1033500020F480703B4BC3F880001846006820F4CE
:10336000C06040F40070186037480068322358434A
:10337000364BB0FBF3F0411C00E0491E3148406978
:1033800000F48060B0F5806F01D10029F5D12D489F
:10339000406900F48060B0F5806F51D10320704720
:1033A00008E028488030006820F48070254BC3F87E
:1033B000800045E0B2F5007F3AD12248006800F471
:1033C000C060B0F5806F2AD11E488030006840F49C
:1033D00080701C4BC3F880001846006820F4C06061
:1033E00040F4007018601848006832235843174BA7
:1033F000B0FBF3F0411C00E0491E1248406900F4A4
:103400008060B0F5806F01D10029F5D10D48406989
:1034100000F48060B0F5806F12D10320BFE7094847
:103420008030006840F48070064BC3F8800007E0ED
:103430000448006820F4C06040F48060014B1860CC
:103440000020ACE7007000406001002040420F0007
:103450000348806840F4804001498860704700005C
:10346000007000402DE9F84304460027B846206864
:1034700000F40020B0F5002F73D1B946FD48806DEF
:1034800000F0805078B900BFFA48806D40F080505D
:10349000F84988650846806D00F08050009000BFB4
:1034A00000BF4FF00109F448006840F48070F24911
:1034B0000860FFF745FA064606E0FFF741FA801B71
:1034C000022801D9032705E0EB48006800F480706A
:1034D0000028F2D000BF002F46D1E64890300068A7
:1034E00000F44075CDB1206DA84216D0E14890306F
:1034F000006820F44075DF48D0F8900040F4803038
:10350000DC49C1F890000846D0F8900020F48030E3
:10351000C1F890000846C0F8905005F00100A0B135
:10352000FFF70EFA064608E0FFF70AFA801B41F2A1
:103530008831884201D9032706E0CE4890300068E0
:1035400000F002000028EFD000BF5FB9C9489030FA
:10355000006820F44070216D0843C649C1F890000E
:1035600003E00CE0B84600E0B846B9F1010F05D120
:10357000C048806D20F08050BE49886500BF20782B
:1035800000F0010048B1BB488830006820F003001B
:1035900061680843B749C1F88800207800F002004C
:1035A000022809D1B3488830006820F00C00A168D7
:1035B0000843B049C1F88800207800F004000428CE
:1035C00009D1AC488830006820F03000E168084339
:1035D000A849C1F88800207800F00800082809D11F
:1035E000A4488830006820F0C00021690843A14940
:1035F000C1F88800207800F01000102809D19D48FB
:103600008830006820F44070616908439949C1F826
:103610008800207800F02000202809D195488830C3
:10362000006820F44060A16908439249C1F888000D
:10363000207800F04000402809D18E48883000688A
:1036400020F44050E16908438A49C1F88800207895
:1036500000F08000802809D186488830006820F476
:103660004040216A08438349C1F88800208800F45B
:103670008070B0F5807F09D17E488830006820F4E2
:103680004030616A08437B49C1F88800206800F433
:103690000030B0F5003F09D176489C30006820F03A
:1036A0000300A16A08437349C1F89C00208800F414
:1036B0000070B0F5007F09D16E488830006820F4B2
:1036C0004020E16A08436B49C1F88800208800F473
:1036D0008060B0F5806F13D166488830006820F4B0
:1036E0004010216B0843634988310860206BB0F5B6
:1036F000801F05D15F48C06840F480105D49C860F4
:10370000208800F40060B0F5006F13D1594888306C
:10371000006820F44000616B084356498831086016
:10372000606BB0F5800F05D15248C06840F480103E
:103730005049C860208800F48050B0F5805F13D1F4
:103740004C488830006820F04070A16B084349491C
:1037500088310860A06BB0F1807F05D14548C06812
:1037600040F480104349C860208800F40050B0F550
:10377000005F13D13F488830006820F04060E16B63
:1037800008433C4988310860E06BB0F1006F05D117
:103790003848C06840F480103649C860208800F47A
:1037A0008040B0F5804F13D132488830006820F057
:1037B0004060216C08432F4988310860206CB0F1CB
:1037C000006F05D12B48C06840F480102949C860BB
:1037D000208800F40040B0F5004F13D12548883010
:1037E000006820F04050616C08432249883108602D
:1037F000606CB0F1805F05D11E48C06840F4803035
:103800001C49C860206800F48030B0F5803F13D1B7
:1038100018488830006820F04040A16C08431549E2
:1038200088310860A06CB0F1804F05D11148C068A4
:1038300040F480300F49C860206800F48020B0F563
:10384000802F13D10B489C30006820F44010E16CAD
:10385000084308499C310860E06CB0F5001F05D1B1
:103860000448C06840F480100249C8604046BDE882
:10387000F883000000100240007000402DE9F04184
:1038800004460D464FF0000814B90120BDE8F08150
:103890007D48006800F00F00A8420ED27A48006808
:1038A00020F00F002843784908600846006800F0BF
:1038B0000F00A84201D00120E8E7207800F00100C5
:1038C000002864D06068032823D17048006800F0A5
:1038D000007008B90120D9E702F086FB06466C4863
:1038E000864237D96948806800F0F00030B120780E
:1038F00000F0020002282DD1A06858BB6348806800
:1039000020F0F00040F08000604988604FF08008AF
:1039100020E06068022806D15C48006800F40030AE
:1039200040B90120B2E75948006800F4806008B946
:103930000120ABE700F0DEF806465548864209D97B
:103940005248806820F0F00040F080004F498860C5
:103950004FF080084D48806820F0030061680843FC
:103960004A498860FEF7ECFF074608E0FEF7E8FFEB
:10397000C01B41F28831884201D9032086E74348C1
:10398000806800F00C006168B0EB810FEED1207808
:1039900000F00200022820D1207800F00400042862
:1039A00005D13A48806840F4E06038498860207862
:1039B00000F00800082807D13448806820F46050DF
:1039C00040F4E060314988603048806820F0F000C1
:1039D000A16808432D49886008E0B8F1800F05D13F
:1039E0002A48806820F0F00028498860264800684E
:1039F00000F00F00A84219D92348006820F00F00FA
:103A0000284321490860FEF79BFF074608E0FEF7C0
:103A100097FFC01B41F28831884201D9032035E766
:103A20001948006800F00F00A842F0D1207800F09B
:103A30000400042807D11548806820F4E060E1689C
:103A4000084312498860207800F00800082808D14F
:103A50000E48806820F46050216940EAC1000B499B
:103A6000886000F047F809498968C1F30311094AE1
:103A7000515C01F01F01C840074908600748006811
:103A8000FFF7A6FB02E70000002002400010024002
:103A900000B4C4040C8E030860010020580100200B
:103AA00001480068704700006001002000B5FFF782
:103AB000F7FF05498968C1F30221044A515C01F00E
:103AC0001F01C84000BD0000001002401C8E03080A
:103AD00000B5FFF7E5FF05498968C1F3C221044A33
:103AE000515C01F01F01C84000BD00000010024001
:103AF0001C8E030870B5224DAD6805F00C05042D31
:103B000001D120483AE01E4DAD6805F00C05082DA6
:103B100001D11D4832E01A4DAD6805F00C050C2DA1
:103B20002BD1174DED6805F00304154DED68C5F375
:103B300003156A1C022C0CD0032C09D1124DB5FBC5
:103B4000F2F50F4EF668C6F3062605FB06F10AE00D
:103B500000BF0C4DB5FBF2F5094EF668C6F306261C
:103B600005FB06F100BF00BF054DED68C5F34165DB
:103B70006D1C6B00B1FBF3F000E0002070BD000095
:103B8000001002400024F40000366E012DE9F843D5
:103B9000044614B90120BDE8F883207800F0010044
:103BA000002865D0FC48806800F00C07FA48C0681F
:103BB00000F003060C2F01D1032E01D0082F0AD1EB
:103BC000F548006800F40030002851D060680028F3
:103BD0004ED10120DFE700BF6068B0F5803F06D11D
:103BE000ED48006840F48030EB4908601AE06068F6
:103BF000B0F5A02F0BD1E848006840F48020E649DA
:103C000008600846006840F4803008600AE0E24836
:103C1000006820F48030E04908600846006820F41D
:103C20008020086000BF606888B1FEF789FE054605
:103C300006E0FEF785FE401B642801D90320AAE7B1
:103C4000D548006800F400300028F2D010E0FEF7FC
:103C500077FE054606E0FEF773FE401B642801D997
:103C6000032098E7CC48006800F400300028F2D127
:103C7000207800F00200022860D1C748806800F078
:103C80000C07C548C06800F003060C2F01D1022EB6
:103C900001D0042F18D1C048006800F4806018B12A
:103CA000E06808B9012076E7BB48406820F0FE4094
:103CB000217C40EA0160B8494860B8480068FFF7D5
:103CC00087FA18B3012066E7E06800B3B2480068DD
:103CD00040F48070B0490860FEF732FE054606E009
:103CE000FEF72EFE401B022801D9032053E7AA4805
:103CF000006800F480600028F2D0A748406820F0F7
:103D0000FE40217C40EA0160A349486016E0A248D9
:103D1000006820F48070A0490860FEF711FE054697
:103D200006E0FEF70DFE401B022801D9032032E712
:103D30009948006800F480600028F2D1207800F0F3
:103D40000800082836D16069D0B1934894300068E3
:103D500040F001009049C1F89400FEF7F1FD0546DE
:103D600006E0FEF7EDFD401B022801D9032012E713
:103D700089489430006800F002000028F1D019E072
:103D800085489430006820F001008349C1F8940010
:103D9000FEF7D6FD054606E0FEF7D2FD401B0228E1
:103DA00001D90320F7E67C489430006800F0020057
:103DB0000028F1D1207800F00400042872D14FF0DF
:103DC00000087548806D012121EA107078B100BFAC
:103DD0007148806D40F080506F4988650846806D5D
:103DE00000F08050009000BF00BF4FF001086C4809
:103DF000006800F48070B0B96948006840F48070D1
:103E000067490860FEF79CFD054606E0FEF798FD51
:103E1000401B022801D90320BDE66148006800F478
:103E200080700028F2D000BFA068012808D15A484D
:103E30009030006840F001005749C1F8900021E03F
:103E4000A06805280FD154489030006840F0040065
:103E50005149C1F890000846D0F8900040F00100A8
:103E6000C1F890000EE04C489030006820F001004E
:103E70004949C1F890000846D0F8900020F00400AD
:103E8000C1F8900000BFA068A8B1FEF759FD054633
:103E900009E0FEF755FD401B41F28831884202D906
:103EA000032078E625E03C489030006800F00200EE
:103EB0000028EED013E0FEF743FD054608E0FEF7CC
:103EC0003FFD401B41F28831884201D9032062E660
:103ED00031489030006800F002000028EFD1B8F1BE
:103EE000010F05D12C48806D20F080502A4988654B
:103EF00000BF207800F02000202836D1A069D0B182
:103F000025489830006840F001002349C1F8980026
:103F1000FEF716FD054606E0FEF712FD401B0228DF
:103F200001D9032037E61C489830006800F00200F1
:103F30000028F1D019E018489830006820F00100FE
:103F40001549C1F89800FEF7FBFC054606E0FEF7B0
:103F5000F7FC401B022801D903201CE60E489830CC
:103F6000006800F002000028F1D1E069002860D06C
:103F70000948806800F00C000C287FD0E069022816
:103F800058D10548006820F0807003490860FEF7AA
:103F9000D7FC05460DE0000000100240580100204B
:103FA00000700040FEF7CCFC401B022801D9032022
:103FB000F1E54D48006800F000700028F2D1D4E926
:103FC0000810401E41EA0011A06A41EA0021208E3B
:103FD0000122C2EB500041EA40513420005DC2EBA7
:103FE000500041EA40612C20005D41EAC0603E493A
:103FF000C9683E4A114008433B49C860084600680A
:1040000040F0807008600846C06840F08070C8606A
:10401000FEF796FC054606E0FEF792FC401B0228E0
:1040200001D90320B7E53048006800F0007000288F
:10403000F2D056E02C48006820F080702A490860D1
:104040000846C06820F00300C8600846C0682849D8
:1040500008402549C860FEF773FC054607E00DE0FF
:10406000FEF76EFC401B022801D9032093E51E4891
:10407000006800F000700028F2D132E0E069012809
:1040800000D188E51848C66806F00301206A81421D
:1040900025D106F0F001606A401EB1EB001F1ED171
:1040A00006F4FE41A06AB1EB002F18D106F078416A
:1040B0002C20005DB1EBC06F11D106F4C001208E41
:1040C0000122C2EB5000B1EB405F08D106F0C061A5
:1040D0003420005DC2EB5000B1EB406F01D00120F5
:1040E00059E5002057E50000001002400C809F01B8
:1040F000FFFFEEFE70B504460CB9012070BD606A8A
:1041000038B96068B0F5827F00D105E00021E16137
:1041100002E00021216161610021A16294F85D004B
:1041200028B9002084F85C00204600F061F80220E5
:1041300084F85D002068006820F040002168086075
:10414000E068B0F5E06F01D9002501E04FF480553B
:10415000E068B0F5706F05D0E068B0F5E06F01D0B1
:104160000021A162A08800F48270218901F4044139
:104170000843217C01F002010843217D01F0010187
:104180000843218B01F400710843217F01F03801BD
:1041900008432021095D01F080010843218D01F4CD
:1041A00000510843216808600421A06901EA104019
:1041B00094F8241001F01001084394F8341001F031
:1041C00008010843A18901F47061084305F4805196
:1041D0000843216848602068C06920F400602168B5
:1041E000C86100202066012084F85D00002085E77A
:1041F00010B586B00446142101A8FCF763F81849ED
:104200002068884229D100BF1648806D40F40040E4
:10421000144988650846806D00F40040009000BF96
:1042200000BF00BF0846C06C40F00400C8640846E8
:10423000C06C00F00400009000BF00BF4FF4E050DD
:104240000190022002900020039003200490062099
:10425000059001A90448FEF77DFA06B010BD0000E4
:10426000003C004000100240000800482DE9F84FD3
:104270000446884616461D464FF0000A00BF94F8D3
:104280005C00012802D10220BDE8F88F012084F8EB
:104290005C0000BFFEF754FB0746B14694F85D0092
:1042A000012802D04FF0020ACBE0B8F1000F00D095
:1042B00016B94FF0010AC4E0032084F85D00002025
:1042C0002066C4F83880A687E6872064A4F84400F6
:1042D000A4F846002065E064A068B0F5004F0BD15B
:1042E0002068006820F040002168086020680068AD
:1042F00040F48040216808602068006800F04000B9
:10430000402805D02068006840F04000216808601F
:10431000E068B0F5E06F2FD9606810B1B9F1010F16
:1043200009D1A06B00882168C860A06B801CA063C5
:10433000E08F401EE0871BE02068806800F00200EC
:1043400002280AD1A06B00882168C860A06B801C7D
:10435000A063E08F401EE0870AE0FEF7F1FAC01B81
:10436000A84201D3681C00B915B94FF0030A68E0F0
:10437000E08F0028E0D14AE0606810B1B9F1010F88
:1043800017D1E08F01280AD9A06B00882168C86086
:10439000A06B801CA063E08F801EE08709E0A06B0B
:1043A000007821680873A06B401CA063E08F401E5A
:1043B000E08729E02068806800F00200022818D118
:1043C000E08F01280AD9A06B00882168C860A06B23
:1043D000801CA063E08F801EE08715E0A06B007852
:1043E00021680873A06B401CA063E08F401EE0872B
:1043F0000AE0FEF7A5FAC01BA84201D3681C00B969
:1044000015B94FF0030A1CE0E08F0028D2D13A46DC
:104410002946204601F01CFE08B120202066A06835
:1044200050B900BF002000902068C068009020684C
:104430008068009000BF00BF206E08B14FF0010AF5
:1044400000BF012084F85D0000BF002084F85C00FC
:1044500000BF504618E770B504462546681EB0F107
:10446000807F01D301200FE0681E4FF0E0214861FA
:104470000F214FF0FF3002F013FF00204FF0E0213A
:10448000886107200861002070BD70477047704741
:10449000704770477047000030B502460B4600BFBA
:1044A00092F83C00012801D1022030BD012082F8A1
:1044B0003C0000BF022082F83D001068416810688F
:1044C0008468234D1068A84207D0224D1068A84286
:1044D00003D0214D1068A84203D121F4700158681F
:1044E00001431E4801401868014310684160184D9F
:1044F0001068A8421BD01068B0F1804F17D0184D3B
:104500001068A84213D0174D1068A8420FD0164D5E
:104510001068A8420BD00F4D1068A84207D0134D69
:104520001068A84203D00C4D1068A84205D124F0B1
:1045300080049868044310688460012082F83D007C
:1045400000BF002082F83C0000BF00BFADE70000C4
:10455000002C014000340140005001408FFFFFFD5E
:104560000004004000080040000C004000400140F2
:10457000704710B504460CB9012010BD94F83D00F9
:1045800028B9002084F83C00204600F029F80220D9
:1045900084F83D00211D206801F0C4FE012084F84C
:1045A000480000BF84F83E0001213F200155402013
:1045B000015541200155422001554320015500BFBE
:1045C00000BF012084F844004520015546200155D4
:1045D0004720015500BF012084F83D000020CCE7B2
:1045E00038B504460D492068884215D100BF0C48F3
:1045F000806D40F002000A4988650846806D00F031
:104600000200009000BF00BF002211461D20FEF7EF
:1046100041FE1D20FEF72AFE38BD000000040040C8
:1046200000100240014691F83D00012801D0012010
:104630007047022081F83D000868C06840F0010022
:104640000B68D8601C4B086898421BD00868B0F112
:10465000804F17D0194B0868984213D0184B086840
:1046600098420FD0174B086898420BD0164B086839
:10467000984207D0154B0868984203D0144B08683D
:10468000984210D108688068124B00EA0302062A9B
:104690000FD0B2F5803F0CD00868006840F00100F0
:1046A0000B68186005E00868006840F001000B68BE
:1046B00018600020BCE70000002C0140000400400E
:1046C00000080040000C0040003401400040014060
:1046D00000500140070001002DE9F04104460D465D
:1046E000002700BF94F83C00012802D10220BDE859
:1046F000F081012084F83C0000BF022084F83D00D6
:10470000206886684248064026F47F462068866016
:104710002868B0F5005F33D015DC402851D008DCA4
:10472000002858D0102857D0202856D0302862D1E1
:1047300054E0502831D0602839D0702813D0B0F51B
:10474000805F58D10EE000F00F01002953D1001115
:10475000A0F5803008284ED2DFE800F04142434403
:104760004546474849E0D5E902136A68206801F0E8
:1047700049FE2068866846F07706206886603CE03F
:10478000D5E902136A68206801F03CFE2068806861
:1047900040F48040216888602FE0EA6869682068FA
:1047A00001F048FE5021206801F038FE25E0EA685B
:1047B0006968206801F051FE6021206801F02EFE3A
:1047C0001BE0EA686968206801F034FE4021206837
:1047D00001F024FE11E000BF00BF00BF00BF00BF1A
:1047E00000BF00BF00BF00BF00BF00BF2968206836
:1047F00001F014FE01E0012700BF00BF012084F892
:104800003D0000BF002084F83C0000BF38466EE742
:1048100088FFCEFF704710B5044620680069C0F3DA
:104820004000D8B12068C068C0F34000B0B16FF05C
:10483000020021680861012020772068806900F06B
:10484000030018B12046FFF7E5FF05E0204600F021
:1048500002F9204600F000F9002020772068006966
:10486000C0F38000D8B12068C068C0F38000B0B148
:104870006FF00400216808610220207720688069B9
:1048800000F4407018B12046FFF7C4FF05E0204651
:1048900000F0E1F8204600F0DFF8002020772068E3
:1048A0000069C0F3C000D8B12068C068C0F3C00080
:1048B000B0B16FF0080021680861042020772068FB
:1048C000C06900F0030018B12046FFF7A3FF05E020
:1048D000204600F0C0F8204600F0BEF80020207707
:1048E00020680069C0F30010D8B12068C068C0F328
:1048F0000010B0B16FF01000216808610820207727
:104900002068C06900F4407018B12046FFF782FFAC
:1049100005E0204600F09FF8204600F09DF80020BA
:1049200020772068006900F0010058B12068C06855
:1049300000F0010030B16FF00100216808612046ED
:1049400000F08BF820680069C0F3C01058B12068EF
:10495000C068C0F3C01030B16FF0800021680861FA
:104960002046FFF793FD20680069C0F3002058B18E
:104970002068C068C0F3C01030B16FF48070216847
:1049800008612046FFF781FD20680069C0F38010B0
:1049900058B12068C068C0F3801030B16FF040009B
:1049A00021680861204600F059F820680069C0F3CA
:1049B000401058B12068C068C0F3401030B16FF0AB
:1049C0002000216808612046FFF761FD206800692A
:1049D000C0F3005058B12068C068C0F3005030B137
:1049E0006FF48010216808612046FFF752FD2068AF
:1049F0000069C0F3405058B12068C068C0F340500F
:104A000030B16FF40010216808612046FFF740FDC7
:104A100020680069C0F3805058B12068C068C0F3B6
:104A2000805030B16FF48000216808612046FFF7A4
:104A300031FD20680069C0F3C05058B12068C068DB
:104A4000C0F3C05030B16FF4000021680861204607
:104A5000FFF78EFD10BD70477047704770470146E5
:104A600000BF91F88000012801D102207047012089
:104A700081F8800000BF2420C1F884000868026823
:104A80000868006820F001000B68186022F00052EE
:104A900000204866086802602020C1F8840000BF3A
:104AA000002081F8800000BF00BFDFE7704770473B
:104AB00070B504460D4600BF94F88000012801D16E
:104AC000022070BD012084F8800000BF2420C4F8BB
:104AD0008400206806682068006820F001002168D2
:104AE00008602068806820F0606028432168886042
:104AF000204601F0C7FC206806602020C4F884002E
:104B000000BF002084F8800000BF00BFD9E770B567
:104B100004460D4600BF94F88000012801D1022010
:104B200070BD012084F8800000BF2420C4F88400F8
:104B3000206806682068006820F00100216808608D
:104B40002068806820F06040284321688860204603
:104B500001F098FC206806602020C4F8840000BFA3
:104B6000002084F8800000BF00BFD9E7704770477D
:104B7000704700002DE9F04704462068C5692068A9
:104B800006682068876840F60F0005EA0009B9F159
:104B9000000F0FD105F0200060B106F0200010B921
:104BA00007F0805030B1206F10B12046216F884748
:104BB000BDE8F087B9F1000F7ED0CF48384018B972
:104BC000CE4830400028F7D005F0010058B106F477
:104BD000807040B1012021680862D4F88C0040F058
:104BE0000100C4F88C0005F0020058B107F0010084
:104BF00040B1022021680862D4F88C0040F0040023
:104C0000C4F88C0005F0040058B107F0010040B171
:104C1000042021680862D4F88C0040F00200C4F837
:104C20008C0005F0080070B106F0200010B9B24801
:104C3000384040B1082021680862D4F88C0040F068
:104C40000800C4F88C0005F4006060B106F08060D4
:104C500048B14FF4006021680862D4F88C0040F03D
:104C60002000C4F88C00D4F88C0000284ED005F049
:104C7000200050B106F0200010B907F0805020B19C
:104C8000206F10B12046216F8847D4F88CA020688F
:104C9000806800F04000402802D00AF0280070B37D
:104CA000204601F0DFFC2068806800F040004028CA
:104CB00021D100BF00BF00E029E02168083151E8A0
:104CC000001F21F040002168083141E80002002A5D
:104CD000F1D100BFE06F50B18948E16F8863E06FA8
:104CE000FDF7D9FC90B1E06F816B88470EE020465C
:104CF000FFF73EFF0AE02046FFF73AFF06E0FFE736
:104D00002046FFF735FF0020C4F88C0050E7E06E26
:104D1000012870D105F0100000286CD006F01000BA
:104D20000028FAD01020216808622068806800F00E
:104D30004000402860D1E06F006840681FFA80F8AA
:104D4000B8F1000F56D0B4F85C00404552DDA4F82D
:104D50005E80E06F0068006800F02000F0BB00BFDC
:104D600000BF216851E8001F21F48070226842E8EA
:104D700000010029F5D100BF00BF00BF2168083144
:104D800051E8001F21F001002168083141E80002CC
:104D9000002AF3D100BF00BF00BF2168083151E8ED
:104DA000001F21F040002168083141E80002002A7C
:104DB000F3D100BF2020C4F888000020E06600BFC7
:104DC00000BF216851E8001F21F01000226842E86E
:104DD00000010029F5D100BFE06F00E001E0FDF720
:104DE0001FFCB4F85C00B4F85E20801A81B2204643
:104DF000FFF75CFEDCE641E034F85C0F6188401AA6
:104E00001FFA80F860885C3CB8B3B8F1000F34D06A
:104E100000BF00BF216851E8001F21F49070226894
:104E200042E800010029F5D100BF00BF00BF2168A2
:104E3000083151E8001F304AD24301EA02002168DC
:104E4000083141E80002002AF1D100BF2020C4F857
:104E500088000020E066206700BF00BF216851E89D
:104E6000001F21F01000226842E800010029F5D15E
:104E700000BF41462046FFF719FE99E605F4801071
:104E800050B107F4800038B14FF4801021680862F7
:104E90002046FFF76CFE8BE605F0800058B106F067
:104EA000800010B907F4000028B1606F10B12046EF
:104EB000616F88477CE605F0400030B106F04000A5
:104EC00018B1204601F004FC72E605F4000030B190
:104ED00006F0804018B12046FFF748FE68E605F06E
:104EE000807030B106F0004018B12046FFF7DFFDBA
:104EF0005EE600BF5CE60000010000102001000437
:104F00004B66000810B504460CB9012010BDA0691D
:104F100000B100E000BFD4F8840028B9002084F874
:104F20008000204600F02AF82420C4F8840020687D
:104F3000006820F0010021680860204601F07AFE38
:104F4000012800D1E2E7A06A10B1204601F0C6FABC
:104F50002068406820F4904021684860206880689C
:104F600020F02A00216888602068006840F0010075
:104F700021680860204601F02DFBC7E710B59CB002
:104F80000446142117A8FBF79DF9542102A8FBF74A
:104F900099F92149206888423BD1202002900020C5
:104FA000089002A8FEF75EFA08B1FCF7B5FA00BF58
:104FB0001A48C06D40F001001849C8650846C06D28
:104FC00000F00100019000BF00BF00BF0846C06CA8
:104FD00040F00100C8640846C06C00F00100019078
:104FE00000BF00BF0C2017900220189000201990DD
:104FF00003201A900C201B9017A94FF09040FDF74A
:10500000A9FB002204215B20FEF744F95B20FEF798
:105010002DF91CB010BD00000080004000100240BF
:1050200070B504460D461646D4F8880020282CD1C9
:1050300005B10EB9012070BD00BF94F880000128B1
:1050400001D10220F7E7012084F8800000BF002092
:10505000E0660F492068884211D02068406800F45B
:10506000000060B100BF00BF216851E8001F41F09F
:105070008060226842E800010029F5D100BF324675
:105080002946204601F0BAFFD5E70220D3E7000009
:105090000080004010B504462049206888423BD17A
:1050A0001F48008800F4004088BB1D48008800F4B9
:1050B000804070B11B4800780A2803D000201849AE
:1050C000088024E01648008840F400401449088015
:1050D0001DE0144800780D2806D11148008840F4DE
:1050E00080400F49088012E00E4800780C4909887A
:1050F000C1F30D010C4A505409480088401C08496E
:10510000088008460088C72801DD002008800122A9
:1051100004490648FFF784FF10BD000000800040EE
:105120005001002052010020980700206008002054
:105130002DE9F84F04460E4617469946D4F88400E8
:1051400020285ED106B117B90120BDE8F88F00BF55
:1051500094F88000012801D10220F6E7012084F8AC
:10516000800000BF00205434A06321202063FDF79D
:10517000E7FB824627806780543CA068B0F5805FDB
:1051800004D1206910B90025B04602E035464FF041
:10519000000800BF002084F8800000BF1DE05346D7
:1051A000002280212046CDF8009001F0DFFF08B1F9
:1051B0000320CAE745B9B8F80000C0F30800216829
:1051C000886208F1020803E02878216888626D1C73
:1051D000B4F85600401EA4F85600B4F85600002853
:1051E000DDD15346002240212046CDF8009001F049
:1051F000BDFF08B10320A8E72020C4F884000020E8
:10520000A3E70220A1E77047072944D2DFE801F0B5
:105210000D161F28313A04000268D2F8842342F0A8
:1052200001030268C2F8843336E00268D2F88423AE
:1052300042F002030268C2F884332DE00268D2F81B
:10524000842342F004030268C2F8843324E0026835
:10525000D2F8842342F008030268C2F884331BE0CA
:105260000268D2F8842342F010030268C2F8843343
:1052700012E00268D2F8842342F020030268C2F8E8
:10528000843309E00268D2F8842342F040030268C4
:10529000C2F8843300E000BF00BF704710B5036858
:1052A0001A6822F007028B681A4322F01802CB68B2
:1052B0001A4303681A600B68046863614B680468EA
:1052C000A36110BD10B50246146820681468D4F8B4
:1052D000A03320F020004C69204320F0C0004C692E
:1052E000202C02D08C69022C04D120F0C00040F0A8
:1052F000200013E08C69032C04D140F0400020F022
:1053000080000BE08C69042C04D140F0800020F078
:10531000400003E020F0200020F0C00020F40060F6
:10532000CC69204320F480600C6A204320F0C060E8
:105330004C6A204320F000608C6A204320F04040FB
:10534000CC6A40EA840020F000504C6B204323F4E8
:1053500080330C6B2343146820601468C4F8A033B6
:1053600010BDF0B5154600240768803707EBC1175C
:105370007A6E0768803707EBC117BE6B402D23D0CC
:105380000EDC082D34D006DC012D1AD0022D2ED0D3
:10539000042D43D116E0102D15D0202D3ED128E04C
:1053A000B5F5007F27D005DC802D23D0B5F5807FB3
:1053B00034D10AE0B5F5806F08D0B5F5006F2DD176
:1053C0001AE000BF00BF00BF00BF00BFD3F804C099
:1053D0000768803707EBC117C7F83CC0D3F808C08F
:1053E0000768803707EBC117C7F840C017E000BF58
:1053F00000BF00BF00BF00BFD3F804C007688037FC
:1054000007EBC117C7F844C0D3F808C00768803756
:1054100007EBC117C7F848C0102400E000BF00BF69
:10542000FE27A740BA431F68A7403A43DF68A7405A
:105430003A431F69A7403A435F69A7403A439F69CF
:10544000A7403A431F69082F08D106F400772FB907
:1054500006F0007717B9DF69A7403A43076880373D
:1054600007EBC1177A66F0BD30B50468803404EBF1
:10547000C114236823F007039468234323F018031F
:10548000D46823430468803404EBC1142360156896
:105490000468803404EBC114656155680468803485
:1054A00004EBC114A56130BD2DE9F04103460C4663
:1054B000D3F800C00CF1800C0CEBC41CDCF800C06D
:1054C0002CF07048D3F800C00CF1800C0CEBC41C1D
:1054D000CCF80080D3F800C00CF1800C0CEBC41C9D
:1054E000DCF80000D3F800C00CF1800C0CEBC41CFD
:1054F000DCF86860D3F800C00CF1800C0CEBC41C25
:10550000DCF86450D3F800C0DCF8A01320F02000D1
:10551000D2F814C04CEA0000D2F814C0BCF1200F3D
:1055200004D0D2F818C0BCF1020F04D120F4C0702E
:1055300040F0200017E0D2F818C0BCF1030F04D1EE
:1055400040F0800020F480700DE0D2F818C0BCF16B
:10555000040F04D140F4807020F0800003E020F0BC
:10556000200020F4C07020F40060D2F81CC04CEA87
:10557000000020F48060D2F820C04CEA000020F047
:10558000C060D2F824C04CEA000020F00060D2F8DD
:1055900028C04CEA000020F07040D2F82CC04CEA41
:1055A000000020F40030D2F834C0BCF1005F01D11B
:1055B00040F4003020F04000D2F838C04CEA00003F
:1055C00020F48020D2F858C04CEA0000DFF820C157
:1055D00000EA0C00D2F850C04CEA000026F03F066A
:1055E00092F83CC00CF03F0C4CEA060626F0004650
:1055F000D2F840C04CEA060625F48075D2F844C0C3
:105600004CEA0505D2F848C0BCF5606F04D0D2F86A
:1056100048C0BCF5F05F04D1D2F838C0BCF1400FEF
:1056200005D125F4F055D2F848C04CEA050525F41B
:105630008045D2F84CC04CEA0505576D062C2ED299
:10564000DFE804F0030A11181F2621F40031D2F814
:1056500030C041EA4C0123E021F48021D2F830C06F
:1056600041EA8C011CE021F40021D2F830C041EA6B
:10567000CC0115E021F48011D2F830C041EA0C11C0
:105680000EE021F40011D2F830C041EA4C1107E0DD
:1056900021F48001D2F830C041EA8C1100E000BF53
:1056A00000BFD3F800C00CF1800C0CEBC41CCCF88C
:1056B0000000D3F800C00CF1800C0CEBC41CCCF83B
:1056C0006860D3F800C00CF1800C0CEBC41CCCF863
:1056D0006450D3F800C00CF1800C0CEBC41CCCF867
:1056E0005470D3F800C0CCF8A013BDE8F0810000DE
:1056F000FFFF06FE10B503461C68803404EBC1149E
:10570000E06E20F01000146840EA041020F48010CD
:105710005468204320F48030D468204320F40030C3
:10572000946820439469012C0BD120F00400146983
:10573000204320F002005469204320F001009469C6
:1057400020431C68803404EBC114E06610BD00BF28
:10575000FEE700008168024A1140491C81607047E1
:10576000C0FFFF7F0146886800F460407047014633
:10577000886800F01F007047024602F1600000EBED
:105780008103186800F0F840704701468868C0F34C
:10579000C000704701468868C0F34000704701466A
:1057A000886800F0010070470146886800F0010039
:1057B000704701468868C0F30070704701468868EA
:1057C000C0F38000704701468868C0F380007047CE
:1057D0000146C86800F4406008B901207047002005
:1057E000FCE700008168024A1140091D8160704792
:1057F000C0FFFF7F70B500F11404C1F3406504EBF6
:1058000085031C68C1F304560725B540AC43C1F3BA
:10581000045502FA05F52C431C6070BD826822F025
:10582000E0720A438260704710B500F1600404EB37
:1058300081031C6824F0004414431C6010BD4269BD
:1058400022F000420A4342617047000010B502484E
:10585000FFF790F910BD00006008002000B58BB084
:105860000020089009900A9020216846FAF72AFD46
:105870004FF0A0401F4908604FF4403048600021BD
:105880001C488160C1600161416104218161002186
:105890000177417701210162002180F82410C16263
:1058A000016380F83810C16380F84010FCF7F0FA0B
:1058B00008B1FBF731FE0020089008A90D48FBF75E
:1058C00049FF08B1FBF728FE0B4800900620019025
:1058D000072002907F200390042004900020059070
:1058E00069460448FCF712F808B1FBF715FE0BB047
:1058F00000BD0000C40500200200300400B589B0DE
:10590000202101A8FAF7DEFC1B481C4908604FF46F
:1059100040304860002119488160C16001614161E7
:105920000421816100210177417701210162002179
:1059300080F82410C162016380F83810C16380F8D8
:105940004010FCF7A5FA08B1FBF7E6FD0C48019002
:1059500006200290072003907F20049004200590E9
:105960000020069001A90548FBF7D0FF08B1FBF71E
:10597000D3FD09B000BD000000010050300600203A
:105980000800900C00B587B0142102A8FAF79AFC21
:1059900000BF3248C06C40F004003049C86408467B
:1059A000C06C00F00400019000BF00BF00BF0846BB
:1059B000C06C40F02000C8640846C06C00F02000B5
:1059C000019000BF00BF00BF0846C06C40F001005E
:1059D000C8640846C06C00F00100019000BF00BF21
:1059E00000BF0846C06C40F00200C8640846C06CA6
:1059F00000F00200019000BF00BF002220214FF004
:105A00009040FCF797FF0022F0211548FCF792FF29
:105A10004FF4005002904FF488100390002004903F
:105A200002A91048FCF796FE202002900120039066
:105A300000200490059002A94FF09040FCF78AFEE8
:105A4000F02002900120039000200490059002A90C
:105A50000348FCF77FFE07B000BD000000100240C5
:105A6000000400480008004800B5B7B0002033909B
:105A700034903590369060211BA8FAF723FC002063
:105A8000189019901A901C2111A8FAF71BFC2421D8
:105A900008A8FAF717FC20216846FAF713FCFE481D
:105AA000FE490860002048600021FC488160FCF746
:105AB000E3FF08B1FBF730FD0C21F848FCF746FF87
:105AC00008B1FBF729FD0A21F448FDF7EBF808B10E
:105AD000FBF722FD4FF4AA6033900020349003209E
